:020000040800F2
:1000000000400020ED0A0008330B0008350B000803
:10001000370B0008390B00083B0B000800000000FC
:100020000000000000000000000000003D0B000880
:100030003F0B000800000000410B0008430B0008C4
:10004000450B0008470B0008490B00084B0B000844
:100050004D0B00084F0B0008510B0008530B000814
:10006000550B0008570B0008590B00085B0B0008E4
:100070005D0B00085F0B0008610B0008630B0008B4
:10008000650B0008670B0008690B00086B0B000884
:100090006D0B00086F0B0008710B0008730B000854
:1000A000750B0008770B0008790B00087B0B000824
:1000B0007D0B00087F0B0008810B0008830B0008F4
:1000C000850B0008870B0008890B00088B0B0008C4
:1000D0008D0B00088F0B0008910B0008930B000894
:1000E000950B0008970B0008990B00089B0B000864
:1000F0009D0B00089F0B0008A10B0008A30B000834
:10010000000000000000000000000000A50B000837
:10011000A70B0008A90B0008AB0B0008AD0B0008EB
:10012000AF0B0008B10B0008B30B0008B50B0008BB
:10013000B70B0008B90B0008000000000000000029
:10014000BB0B0008BD0B0008BF0B0008000000003F
:10015000000000000000000000000000000000009F
:100160000000000000000000C10B0008C30B0008E5
:10017000C50B0008000000000000000000000000A7
:1001800000000000C70B000810B5054C237833B9F8
:10019000044B13B10448AFF300800123237010BD5A
:1001A0009800002000000000E4270008084B10B56C
:1001B0001BB108490848AFF300800848036803B939
:1001C00010BD074B002BFBD0BDE81040184700BF07
:1001D000000000009C000020E42700089800002098
:1001E00000000000154B002B08BF134B9D46A3F5E4
:1001F000803A00218B460F461348144A121A01F028
:1002000031FA0F4B002B00D098470E4B002B00D03B
:1002100098470020002104000D000D48002802D05E
:100220000C48AFF3008001F0F7F92000290000F03E
:10023000A3FB01F0DDF900BF000008000040002032
:10024000000000000000000098000020C400002012
:10025000000000000000000010B4CB0800EB830099
:1002600001F00701046A89000F238B4024EA03038D
:100270000362036A8A4042EA0301016210BC7047CC
:10028000F0B5A14A536803F00C03042B02D0082BED
:1002900000F0F5809D4A026000259B4CDFF874C297
:1002A0006368DFF874E2C3F303131CF80370FFB252
:1002B00022FA07F343606168C1F302211CF80110C0
:1002C00023FA01F181606668C6F3C2261CF8066055
:1002D000F6B2F340C360E46AC4F304143EF8144079
:1002E000A4B214F0100F1CBFB5FBF4F40461864CEB
:1002F00008BF0261E46AC4F344243EF81440A4B287
:1003000014F0100F1CBFB5FBF4F444617E4C08BF21
:100310004261246BE4065CBF7C4C84617A4C48BF2C
:100320008261246BA4065CBF784CC461764C48BFE4
:10033000C261D4F830E01EF4807F49D0954200F0CD
:10034000B8800362246B43626F4C256BAD0711D0FC
:10035000236B03F00303012B00F0B680236B03F043
:100360000303022B00F0BB80236B03F00303032B7A
:1003700001D1664B8362644B1C6B14F4403F31D156
:10038000C162614B1C6B14F4402F44D101635E4B7E
:100390001C6B14F4401F57D141635B4B1C6B14F46E
:1003A000400F6AD0196B01F44001B1F5800F00F0E5
:1003B00091801A6B02F44002B2F5000F00F09F80AA
:1003C0001B6B03F44003B3F5400F00F08580F0BDD4
:1003D0000362246BA405B6D59542B4D1B742B2D11D
:1003E00055006FE01C6B04F44034B4F5803F5AD0E4
:1003F0001C6B04F44034B4F5003F78D01B6B03F45D
:100400004033B3F5403F04BF404BC3623E4B1C6BCF
:1004100014F4402FBAD01C6B04F44024B4F5802FA0
:1004200045D01C6B04F44024B4F5002F5BD01B6B4B
:1004300003F44023B3F5402F04BF344B0363324B26
:100440001C6B14F4401FA7D01C6B04F44014B4F5CB
:10045000801F2AD01C6B04F44014B4F5001F4AD04E
:100460001B6B03F44013B3F5401F04BF274B4363DA
:10047000254B1C6B14F4400F94D18163F0BD55687B
:100480005368C5F38345DB0305F102011ED5D36A2A
:100490001E4D03F00F030133B5FBF3F301FB03F52E
:1004A00005602A46F9E6C2626BE7426375E70263BC
:1004B0006DE7B7427FF445AF55000562246BA60592
:1004C0007FF541AF45623FE7826254E7104B03FB83
:1004D00001F5E5E78263F0BD0C4B8363F0BD4FF49B
:1004E0000043836247E74FF4004303634FE74FF451
:1004F0000043C36245E74FF4004343634DE74FF4C5
:1005000000438363F0BD00BF0010024000127A0078
:1005100000093D001C000020000000208181704780
:10052000808980B2704700BF008900F4C0607047C6
:100530000389194214BF012000207047C1F308014C
:1005400001857047C3690B4214BF0120002070472A
:10055000014608B50448FFF7F1FF80210248FFF784
:10056000F1FF0028F9D008BD0044004070B51E1E00
:1005700013DD1446951903E0FFF7EAFFAC420CD0F7
:1005800014F8010B0A28F7D10D20FFF7E1FF14F84A
:10059000010CFFF7DDFFAC42F2D1304670BD00BF69
:1005A00070B5454E454C336890B0054600219868BB
:1005B00001F078F833680021586801F073F8404A78
:1005C000536943F400335361D1694FF0904341F4D0
:1005D0000031D1611A6A22F470621A621A6A42F416
:1005E000E0621A621A6A22F470421A621A6A42F4CB
:1005F000E0421A629A6822F0F0029A609A6842F029
:1006000050029A609A8822F00C021204120C9A800E
:100610009A8892B29A801A6822F0F0021A601A68D8
:1006200042F0A0021A60DA6822F0F002DA60DA68BA
:1006300042F05002DA60236823F00103236063680C
:1006400023F44053636063686360236823F4B0530A
:1006500023F00C032360236823602368236023684E
:1006600043F00C032360A36823F44073A360A368E2
:10067000A36001A8FFF704FE23680C9A190448BF81
:100680005200B2FBF5F305FB1322B2EB550F0B4AF8
:10069000126828BF0133120405D54FF6F0721A40D4
:1006A000C3F342031343054A9BB29381136843F09B
:1006B0000103136010B070BD8C00002000440040A6
:1006C0000010024010B54FF0904440F08000A38A23
:1006D000C3F30E03A382000200F078F900F068F97A
:1006E000A38A6FEA43436FEA53439BB2A382C0B22B
:1006F00010BD00BF70B5044610480E46FFF714FF4A
:100700004FF090420546938A04F07F00C3F30E0336
:1007100046EA0020938200F059F9084C2046FFF782
:1007200003FF8542F9D04FF09042A389938A6FEA84
:1007300043436FEA53439BB2938270BD003C004039
:1007400008B503212320FFF7D5FF67212020BDE84E
:100750000840FFF7CFBF00BF70B52920FFF7B2FFF9
:1007600005462820FFF7AEFF40EA05252B20FFF7BE
:10077000A9FF04462A20FFF7A5FF40EA04242D2004
:10078000FFF7A0FF06462C20FFF79CFF24B2104B7A
:1007900040EA06202DB2A4F2A462A5F5814500B27C
:1007A00083FB0214583DD217A0F52F7083FB05611F
:1007B000C2EBA404ED1783FB0023C017C0EBA30317
:1007C000C5EBA1012246034800F054FF20B270BDE2
:1007D000676666661C2700082DE9F041FFF7BCFF3D
:1007E0008046FFF7B9FF84B20546E00100B200F091
:1007F0005FFC02460B4600F00FFB064628B20F4690
:1008000000F056FC12A3D3E9002300F0B7FC024627
:100810000B463046394600F0B1FC0646C8EB0400F2
:1008200000B20F4600F044FC02460B463046394603
:1008300000F0F2FA00F0B4FE6FF07F0300B29842CD
:10084000B8BF18468028A8BF8020BDE8F08100BF4F
:10085000333333333333E33F08B5FFF7BDFF803025
:1008600080B2C0F1FF030349034A1BB200B24863E0
:10087000536308BD0044014000480140F0B40F2913
:100880009DF810700ED82F4CA04248D00ED92E4C97
:10089000A04250D004F58064A04246D0A4F5006484
:1008A000A04225D04FF0FF30F0BC7047B0F1904F20
:1008B0002FD0A4F58064A042F4D1244D6C6944F497
:1008C00080246C614900032405688C40E44305EAF8
:1008D000040602FA01F535430560C5688B402540E2
:1008E000013A2B43012AC36008D90020F0BC7047AD
:1008F000164D6C6944F480146C61E3E783889BB205
:100900008F4004EA0301394389B28180F0BC0020A2
:1009100070470E4D6C6944F400346C61D2E70B4DA6
:100920006C6944F400246C61CCE7084D6C6944F4B4
:1009300080046C61C6E7054D6C6944F400146C6179
:10094000C0E700BF00080048001000480010024047
:10095000F0B583B002230024174605461A460E461A
:100960000094FFF78BFF28463A463146FFF774FCA8
:10097000204603B0F0BD00BF08B54FF41650FFF796
:100980000FFE0F2000F038F8FFF7DAFE00F07AF9DA
:1009900000F08EF900F0C8F900F0A0F900F0EAF9D3
:1009A00000F00EFAFFF7D8FEFFF756FFFAE700BF98
:1009B00008B501210448FFF7BBFD0128F9D1024821
:1009C000FFF7AEFDC0B208BD003C004010B50446C4
:1009D00002210848FFF7ACFD0128F9D1214605485E
:1009E000FFF79CFD02210348FFF7A2FD0128F9D182
:1009F00010BD00BF003C004030B5394A394DD369C5
:100A000043F4004383B0D361044606222846042100
:100A1000FFF79EFF284606220321FFF799FF28468D
:100A200006220521FFF794FF0023214600930122AF
:100A30004FF09040FFF722FF2B4B1A8802F44152EF
:100A40001A801A8892B21A801A8892B242F482727C
:100A50001A801A8892B242F002021A801A8892B260
:100A600042F001021A801A8892B242F400721A808F
:100A70001A8892B242F018021A801A8892B21A802A
:100A80009A8822F470621204120C9A809A8892B2A8
:100A900042F400629A809A8B22F400621204120CD3
:100AA00007219A8319829A8822F480521204120C28
:100AB0009A809A8892B242F480529A809A8892B22E
:100AC0009A801A8892B24FF0904142F040021A8008
:100AD0008B8A0120A040184380B2888203B030BDC9
:100AE0000010024000040048003C00400649074A4C
:100AF000074B9A42BEBF51F8040B42F8040BF8E7CB
:100B00000448804704480047F02700080000002000
:100B100098000020D10B0008E50100082A492B4A63
:100B2000002301E041F8043B9142FBD3FFF724FF8F
:100B3000FEE7FEE7FEE7FEE7FEE7FEE7FEE7FEE78D
:100B4000FEE7FEE7FEE7FEE7FEE7FEE7FEE7FEE77D
:100B5000FEE7FEE7FEE7FEE7FEE7FEE7FEE7FEE76D
:100B6000FEE7FEE7FEE7FEE7FEE7FEE7FEE7FEE75D
:100B7000FEE7FEE7FEE7FEE7FEE7FEE7FEE7FEE74D
:100B8000FEE7FEE7FEE7FEE7FEE7FEE7FEE7FEE73D
:100B9000FEE7FEE7FEE7FEE7FEE7FEE7FEE7FEE72D
:100BA000FEE7FEE7FEE7FEE7FEE7FEE7FEE7FEE71D
:100BB000FEE7FEE7FEE7FEE7FEE7FEE7FEE7FEE70D
:100BC000FEE7FEE7FEE7FEE798000020C4000020F5
:100BD00010B4274B274A18682749284C40F00100D9
:100BE0001860586802405A601A6822F0847222F431
:100BF00080321A601A6822F480221A605A6822F43D
:100C0000FE025A60DA6A22F00F02DA621A6B0020E2
:100C1000114012221963986022605A685A605A681B
:100C20005A605A6842F480625A605A6822F47C1210
:100C30005A605A6842F460125A601A6842F0807230
:100C40001A6019680A4A8901FBD5536823F0030327
:100C50005360536843F002035360536803F00C037E
:100C6000082BFAD1064B4FF000629A6010BC704717
:100C7000001002400CC07FF8CCFC00FF00200240B6
:100C800000ED00E030B40849084B8A69182542F4A9
:100C90000032FF248A611D85DC62DA68DA60012295
:100CA0001A8030BC704700BF001002400044014071
:100CB00030B40849084B8A69182542F48022FF2481
:100CC0008A611D85DC62DA68DA6001221A8030BC34
:100CD000704700BF001002400048014008B51049AD
:100CE000104B4A694FF0904042F400324A6102686A
:100CF00022F440420260026842F400420260C2688C
:100D000022F44042C2609A6822F440429A609A6893
:100D100042F440429A6007210122FFF79DFA08BD84
:100D2000001002400008004808B51049104B4A69FD
:100D30004FF0904042F400324A61026822F440527F
:100D40000260026842F400520260C26822F440521B
:100D5000C2609A6822F440529A609A6842F4405203
:100D60009A6006210122FFF777FA08BD00100240C1
:100D700000080048114B1A6A22F003021A621A6A2C
:100D800042F003021A629A6922F4803222F07B0256
:100D90009A619A6942F008029A619A6942F4803233
:100DA00042F070029A615A6C22F40C425A645A6CF6
:100DB000802142F400425A64596370470044014064
:100DC000114B1A6A22F003021A621A6A42F00302F5
:100DD0001A629A6922F4803222F07B029A619A693F
:100DE00042F008029A619A6942F4803242F070023D
:100DF0009A615A6C22F40C425A645A6C802142F473
:100E000000425A64596370470048014081F0004134
:100E100002E000BF83F0004330B54FEA41044FEADF
:100E2000430594EA050F08BF90EA020F1FBF54EA7A
:100E3000000C55EA020C7FEA645C7FEA655C00F016
:100E4000E2804FEA5454D4EB5555B8BF6D420CDDE7
:100E50002C4480EA020281EA030382EA000083EA6A
:100E6000010180EA020281EA0303362D88BF30BD0A
:100E700011F0004F4FEA01314FF4801C4CEA113160
:100E800002D0404261EB410113F0004F4FEA0333BF
:100E90004CEA133302D0524263EB430394EA050F4A
:100EA00000F0A780A4F10104D5F1200E0DDB02FAB9
:100EB0000EFC22FA05F2801841F1000103FA0EF24D
:100EC000801843FA05F359410EE0A5F120050EF113
:100ED000200E012A03FA0EFC28BF4CF0020C43FA44
:100EE00005F3C01851EBE37101F0004507D54FF051
:100EF000000EDCF1000C7EEB00006EEB0101B1F5A1
:100F0000801F1BD3B1F5001F0CD349085FEA3000E6
:100F10004FEA3C0C04F101044FEA445212F5800FF1
:100F200080F09A80BCF1004F08BF5FEA500C50F18E
:100F3000000041EB045141EA050130BD5FEA4C0C71
:100F4000404141EB010111F4801FA4F10104E9D1FA
:100F500091F0000F04BF01460020B1FA81F308BFF1
:100F60002033A3F10B03B3F120020CDA0C3208DDBD
:100F700002F1140CC2F10C0201FA0CF021FA02F198
:100F80000CE002F11402D8BFC2F1200C01FA02F108
:100F900020FA0CFCDCBF41EA0C019040E41AA2BF2D
:100FA00001EB0451294330BD6FEA04041F3C1CDAF5
:100FB0000C340EDC04F11404C4F1200220FA04F015
:100FC00001FA02F340EA030021FA04F345EA0301BF
:100FD00030BDC4F10C04C4F1200220FA02F001FA81
:100FE00004F340EA0300294630BD21FA04F0294603
:100FF00030BD94F0000F83F4801306BF81F480119C
:101000000134013D4EE77FEA645C18BF7FEA655C0E
:1010100029D094EA050F08BF90EA020F05D054EAE0
:10102000000C04BF1946104630BD91EA030F1EBFE5
:101030000021002030BD5FEA545C05D140004941E9
:1010400028BF41F0004130BD14F580043CBF01F5DC
:10105000801130BD01F0004545F0FE4141F47001C2
:101060004FF0000030BD7FEA645C1ABF194610469D
:101070007FEA655C1CBF0B46024650EA013406BF9E
:1010800052EA033591EA030F41F4002130BD00BF5D
:1010900090F0000F04BF0021704730B54FF480641A
:1010A00004F132044FF000054FF0000150E700BF9B
:1010B00090F0000F04BF0021704730B54FF48064FA
:1010C00004F1320410F0004548BF40424FF00001E7
:1010D0003EE700BF42004FEAE2014FEA31014FEA2A
:1010E00002701FBF12F07F4393F07F4F81F0605179
:1010F000704792F0000F14BF93F07F4F704730B5E8
:101100004FF4607401F0004521F0004120E700BF7A
:1011100050EA010208BF704730B54FF000050AE001
:1011200050EA010208BF704730B511F0004502D502
:10113000404261EB41014FF4806404F132045FEA04
:10114000915C3FF4DCAE4FF003025FEADC0C18BFA9
:1011500003325FEADC0C18BF033202EBDC02C2F19F
:10116000200300FA03FC20FA02F001FA03FE40EA31
:101170000E0021FA02F11444C1E600BF70B54FF031
:10118000FF0C4CF4E06C1CEA11541DBF1CEA135513
:1011900094EA0C0F95EA0C0F00F0DEF82C4481EA7B
:1011A000030621EA4C5123EA4C5350EA013518BF9B
:1011B00052EA033541F4801143F4801338D0A0FB88
:1011C00002CE4FF00005E1FB02E506F00042E0FB35
:1011D00003E54FF00006E1FB03569CF0000F18BF3B
:1011E0004EF0010EA4F1FF04B6F5007F64F54074E3
:1011F00004D25FEA4E0E6D4146EB060642EAC62176
:1012000041EA55514FEAC52040EA5E504FEACE2EE2
:10121000B4F1FD0C88BFBCF5E06F1ED8BEF1004FE5
:1012200008BF5FEA500E50F1000041EB045170BD61
:1012300006F0004646EA010140EA020081EA0301A5
:10124000B4EB5C04C2BFD4EB0C0541EA045170BDA1
:1012500041F480114FF0000E013C00F3AB8014F11B
:10126000360FDEBF002001F0004170BDC4F1000464
:10127000203C35DA0C341BDC04F11404C4F12005E5
:1012800000FA05F320FA04F001FA05F240EA020040
:1012900001F0004221F0004110EBD37021FA04F676
:1012A00042EB06015EEA430E08BF20EAD37070BD30
:1012B000C4F10C04C4F1200500FA04F320FA05F08F
:1012C00001FA04F240EA020001F0004110EBD37091
:1012D00041F100015EEA430E08BF20EAD37070BD01
:1012E000C4F1200500FA05F24EEA020E20FA04F3DA
:1012F00001FA05F243EA020321FA04F001F0004189
:1013000021FA04F220EA020000EBD3705EEA430EF9
:1013100008BF20EAD37070BD94F0000F0FD101F028
:101320000046400041EB010111F4801F08BF013C61
:10133000F7D041EA060195F0000F18BF704703F09F
:101340000046520043EB030313F4801F08BF013D26
:10135000F7D043EA0603704794EA0C0F0CEA1355E2
:1013600018BF95EA0C0F0CD050EA410618BF52EA9C
:101370004306D1D181EA030101F000414FF00000A2
:1013800070BD50EA410606BF1046194652EA4306B0
:1013900019D094EA0C0F02D150EA013613D195EA24
:1013A0000C0F05D152EA03361CBF104619460AD16C
:1013B00081EA030101F0004141F0FE4141F4700176
:1013C0004FF0000070BD41F0FE4141F4780170BD66
:1013D00070B54FF0FF0C4CF4E06C1CEA11541DBFCB
:1013E0001CEA135594EA0C0F95EA0C0F00F0A7F8CD
:1013F000A4EB050481EA030E52EA03354FEA0131FA
:1014000000F088804FEA03334FF0805545EA13130C
:1014100043EA12634FEA022245EA111545EA1065D4
:101420004FEA00260EF000419D4208BF964244F16B
:10143000FD0404F5407402D25B084FEA3202B61A8A
:1014400065EB03055B084FEA32024FF480104FF45E
:10145000002CB6EB020E75EB030E22BFB61A7546D2
:1014600040EA0C005B084FEA3202B6EB020E75EB65
:10147000030E22BFB61A754640EA5C005B084FEACD
:101480003202B6EB020E75EB030E22BFB61A75469A
:1014900040EA9C005B084FEA3202B6EB020E75EBA5
:1014A000030E22BFB61A754640EADC0055EA060E66
:1014B00018D04FEA051545EA16754FEA06164FEAA9
:1014C000C30343EA52734FEAC2025FEA1C1CC0D155
:1014D00011F4801F0BD141EA00014FF000004FF0E2
:1014E000004CB6E711F4801F04BF01430020B4F1A3
:1014F000FD0C88BFBCF5E06F3FF6AFAEB5EB030C5B
:1015000004BFB6EB020C5FEA500C50F1000041EB57
:10151000045170BD0EF0004E4EEA113114EB5C0424
:10152000C2BFD4EB0C0541EA045170BD41F48011F7
:101530004FF0000E013C90E645EA060E8DE60CEAFF
:10154000135594EA0C0F08BF95EA0C0F3FF43BAF1C
:1015500094EA0C0F0AD150EA01347FF434AF95EAD3
:101560000C0F7FF425AF104619462CE795EA0C0FB7
:1015700006D152EA03353FF4FDAE1046194622E784
:1015800050EA410618BF52EA43067FF4C5AE50EA5E
:1015900041047FF40DAF52EA43057FF4EBAE12E74E
:1015A0004FEA410212F5001215D211D56FF478738B
:1015B000B3EB625212D94FEAC12343F0004343EA2E
:1015C000505311F0004F23FA02F018BF4042704709
:1015D0004FF00000704750EA013005D111F0004093
:1015E00008BF6FF0004070474FF00000704700BF29
:1015F00008B5074B044613B10021AFF30080054B3B
:101600001868836A03B19847204601F063F800BF69
:10161000000000004C27000870B50E4B0E4CE41A79
:10162000A41000251E46A54204D056F82530984740
:101630000135F8E701F050F8084C094BE41AA41002
:1016400000251E46A54204D056F82530984701359E
:10165000F8E770BD9000002090000020940000206A
:101660009000002002440346934202D003F8011B7D
:10167000FAE770470FB40A4B13B51C6824B1A3698D
:1016800013B9204600F0B2F905AB049AA1680193A2
:10169000204600F071FB02B0BDE8104004B0704776
:1016A0008C00002000294FF480630CBF022200222E
:1016B00000F000B82DE9F7431D464F4B1E68044665
:1016C0000F46904626B1B36913B9304600F08EF943
:1016D0004A4B9C4201D1746808E0494B9C4201D1BD
:1016E000B46803E0474B9C4208BFF468B8F1020FAE
:1016F00004D0B8F1010F79D8002D77DB21463046B0
:1017000000F00AF9616B41B104F14403994202D03F
:10171000304600F05DFA002363630023A361636039
:10172000A3891B0603D52169304600F051FAA3892D
:1017300023F44A6323F00303B8F1020FA3811ED000
:1017400001AB6A462146304600F0DAF9A389184316
:10175000A0810DB9009D00E02FBB284600F030FAB3
:101760000746D0B9DDF80090A94502D14FF0FF300F
:1017700006E0484600F024FA074678B9F6E700206C
:10178000A38943F00203A3810023A36004F147036C
:1017900023602361012363612AE0A946A38943F002
:1017A0008003A3814D46B36913B9304600F01EF99A
:1017B000B8F1010F08BFA389276004BF43F00103FC
:1017C000A381A389276103F0080080B2656158B145
:1017D00013F001034FF000001DBF6D42A060A56132
:1017E000A56008BF184603E0A06001E04FF0FF309D
:1017F00003B0BDE8F08300BF8C0000205027000834
:1018000070270008902700088A892DE9F0410546D5
:1018100010070C4659D44B68002B02DC0B6C002BD4
:1018200017DDE66AAEB102F48052002392B22F684F
:101830002B600AB1606D15E0216A01232846B0478C
:10184000411C0FD12B686BB11D2B01D0162B03D17E
:101850002F600020BDE8F081A38943F04003A381FD
:10186000BDE8F081A3895A0705D56368C01A636B88
:101870000BB1236CC01A00230246E66A216A28468F
:10188000B047431CA38906D129681D293AD8214AAB
:10189000CA40D60736D500226260D9042269226088
:1018A00004D5421C01D12B6803B96065616B2F60C0
:1018B0000029CED004F14403994202D0284600F01A
:1018C00087F900206063BDE8F0810F69002FC0D068
:1018D00093070E6808BF4B690F6018BF0023C7EB62
:1018E00006088B6002E00744C0EB0808B8F1000F5F
:1018F000AFDD43463A46216AA66A2846B04700282B
:10190000F1DCA38943F04003A3814FF0FF30BDE831
:10191000F08100BF0100402038B50B6905460C4638
:10192000DBB118B183690BB900F060F80C4B9C4235
:1019300001D16C6808E00B4B9C4201D1AC6803E01C
:10194000094B9C4208BFEC68B4F90C302BB121461E
:101950002846BDE83840FFF757BF002038BD00BF1C
:10196000502700087027000890270008014900F060
:10197000A9B800BF19190008002310B50446036078
:101980004360836081814366C281036143618361F7
:10199000194608225C30FFF765FE054B6362054B74
:1019A000A362054BE362054B2462236310BD00BFB5
:1019B000092300082B23000863230008872300085D
:1019C00070B568234D1E5D430E4605F1740100F0AD
:1019D0004DF9044640B1002180E842000C30A0607F
:1019E00005F16802FFF73EFE204670BD836910B521
:1019F000044633BB8364C3640365124B124A1B68FD
:101A00008262984204BF0123836100F01FF8606086
:101A1000204600F01BF8A060204600F017F80022D6
:101A2000E06004216068FFF7A7FF01220921A06898
:101A3000FFF7A2FF02221221E068FFF79DFF0123BA
:101A4000A36110BD4C2700086D190008F8B51C4BA8
:101A50001E68B369074613B93046FFF7C7FF48361B
:101A6000B4687368013B04D4B4F90C507DB1683498
:101A7000F8E733680BB13668F2E704213846FFF720
:101A80009FFF30600028F6D10C233B60F8BD4FF675
:101A9000FF73E3810123A38165662560A56065600E
:101AA00025616561A5610822294604F15C00FFF704
:101AB000D9FD6563A563A564E5642046F8BD00BF54
:101AC0004C2700082DE9F8438046894600F1480478
:101AD000002694B1A5686768013F0CD4AB89012B3F
:101AE00007D9B5F90E30013303D029464046C8471F
:101AF00006436835F0E72468EBE73046BDE8F88335
:101B000070B50E46B1F90E10002990B014461D466E
:101B100006DA00232B60B3891A060ED540230EE0A7
:101B200001AA00F007FD0028F3DB029A02F47042DC
:101B3000A2F500535A425A412A604FF480630020B4
:101B4000236010B070BD00008B8973B59E070546F9
:101B50000C4610D401AB6A46FFF7D2FF0099064647
:101B6000284600F083F868B9B4F90C309A0522D4FD
:101B700043F00203A38104F147032360236101239F
:101B8000636118E00D4BAB62A389206043F08003D2
:101B9000A381009B6361019B20614BB1B4F90E10DE
:101BA000284600F0D9FC18B1A38943F00103A381B2
:101BB000A0893043A08102B070BD00BF6D1900083C
:101BC000024B0146186800F051B800BF8C0000209D
:101BD00038B50546002946D051F8043C0C1F002BAF
:101BE000B8BFE41800F02CFD1F4A1368114613B962
:101BF0006360146032E0A3420ED92268A0188342C9
:101C000004BF18685B68636004BF121822600C6030
:101C100024E0A24203D813465A68002AF9D1186872
:101C20001918A1420BD12168014458188242196049
:101C300014D1106852685A60014419600EE002D94C
:101C40000C232B600AE021686018824204BF1068F0
:101C50005268626004BF091821605C602846BDE8D4
:101C6000384000F0EEBC38BDB800002070B5CD1C87
:101C700025F0030508350C2D38BF0C25002D064630
:101C800001DBA94202D90C23336046E000F0D8FC06
:101C9000234B1C681A462146A1B10B685B1B0ED46E
:101CA0000B2B03D90B60CC18CD501EE08C420DBF1E
:101CB00063684B686360136018BF0C4615E00C4600
:101CC0004968E9E7174C23681BB9304600F00CFB64
:101CD00020602946304600F007FB431C18D0C41C86
:101CE00024F00304A0420DD12560304600F0A9FC89
:101CF00004F10B00231D20F00700C31A0ED05A4236
:101D0000E25070BD211A304600F0EEFA0130EBD1FE
:101D10000C233360304600F094FC002070BD00BFFF
:101D2000B8000020B40000209368013B002B10B4E1
:101D3000936008DA9469A34202DBCBB20A2B02D18A
:101D400010BC00F025BB1368581C10601970C8B295
:101D500010BC7047F8B506460F461446D518AC427D
:101D600008D03A4614F8011B3046FFF7DDFF431C4C
:101D7000F5D100E00020F8BD2DE9F04F9DB00C46F4
:101D800017460393064618B183690BB9FFF72EFE79
:101D90007F4B9C4201D1746808E07E4B9C4201D18C
:101DA000B46803E07C4B9C4208BFF468A389180721
:101DB0000CD5236953B10023099320238DF82930D2
:101DC00030238DF82A30DFF8D4B144E02146304684
:101DD00000F032FB0028EED04FF0FF30D5E0039A40
:101DE000111D12680391002A80F28C80524243F048
:101DF00002000792049098F800302E2B00F08480A7
:101E0000032298F80010654800F0CAFB48B140234F
:101E1000CBEB000003FA00F0049B1843049008F198
:101E2000010898F800105E488DF82810062208F185
:101E3000010700F0B5FB002800F09580594B002BFE
:101E400040F08880039B073323F007030833039394
:101E5000099B53440993B846454615F8013B1BB905
:101E6000B8EB07090FD003E0252BF9D0A846F3E71C
:101E70004B463A4621463046FFF76CFF01307FD093
:101E8000099B4B44099398F80030002B78D000232D
:101E90004FF0FF3204930793059206938DF8533069
:101EA0001A930127052229783F4800F079FB05F1B4
:101EB0000108049B38B13C4A801A07FA00F0184325
:101EC00004904546EEE7D90644BF20228DF8532002
:101ED0001A0744BF2B228DF853202A782A2A3FF470
:101EE0007EAF079A00210A20A846013598F80030F5
:101EF000303B092B03D800FB02320121F4E7002913
:101F00003FF479AF079276E798F801302A2B0BD18E
:101F1000039B1A1D1B680392002BB8BF4FF0FF33C1
:101F200008F1020805936BE70023059308F101000F
:101F300019460A258046013098F80020303A092ACF
:101F400003D805FB01210123F4E7002B3FF458AF30
:101F5000059155E703AB00932246144B04A9304684
:101F6000AFF3008007E003AB009322460F4B04A9B8
:101F7000304600F093F8B0F1FF3F82467FF468AF3F
:101F8000A3895B063FF528AF09981DB0BDE8F08F27
:101F9000502700087027000890270008B62700087F
:101FA000BA27000800000000B0270008551D0008EF
:101FB0002DE9F04791461F460A698B68DDF82080BD
:101FC0009342B8BF1346C9F8003091F84320064643
:101FD0000C4612B10133C9F800302368990642BF9C
:101FE000D9F800300233C9F80030256815F006052D
:101FF00010D104F1190A07E0012352463946304650
:10200000C04701301AD00135E368D9F800209B1A87
:102010009D42F1DB94F843302268003318BF01235E
:1020200092060FD5E1185A1C302081F84300224453
:1020300094F8451082F84310023303E04FF0FF306C
:10204000BDE8F08704F1430239463046C04701300D
:10205000F4D02268D9F80050E36802F00602042A9E
:1020600008BF5D1B2269A3680CBF25EAE575002542
:102070009342C4BF9B1AED184FF000091A344D4526
:1020800009D00123224639463046C0470130D5D019
:1020900009F10109F3E70020BDE8F0872DE9F043DD
:1020A00017460A7E85B06E2A984606460C460C9B5B
:1020B00001F1430E00F0AE8011D8632A22D009D876
:1020C000002A00F0BB80582A40F0CA8081F84520E1
:1020D000834955E0642A1ED0692A1CD0C0E0732AC7
:1020E00000F0B08009D86F2A2ED0702A40F0B88056
:1020F0000A6842F020020A603EE0752A24D0782A5D
:102100003AD0ADE01A6801F14205111D196013685B
:1021100084F84230A8E021681A6811F0800F02D0DC
:10212000111D196008E011F0400F02F1040119605F
:1021300002D0B2F9003000E01368002B3CDA2D2207
:102140005B4284F8432037E021681A6811F0800F61
:1021500002D0111D196007E011F0400F02F10401D7
:10216000196001D0138800E01368227E5C496F2A51
:1021700014BF0A2208221BE078225A4984F845201D
:102180002268186812F0800F00F104051D6003D169
:10219000550601D5038800E00368D00744BF42F02C
:1021A000200222601BB9226822F020022260102245
:1021B000002084F8430001E049490A226568A560CF
:1021C000002D08DB206820F0040020602BB9002DD2
:1021D0007DD175460CE0002B79D07546B3FBF2F04B
:1021E00002FB1033CB5C05F8013D03460028F5D116
:1021F000082A0BD12368DA0708D5236962689A4256
:10220000DEBF302305F8013C05F1FF35C5EB0E03B9
:1022100023612EE008681A68496910F0800F03D026
:10222000101D1860136808E010F0400F02F1040060
:102230001860136801D0198000E019600023236141
:10224000754616E01A68111D19601568626800214C
:10225000284600F0A5F908B1401B6060636804E0FF
:1022600004F1420584F8422001232361002384F80D
:102270004330CDF800803B4603AA21463046FFF7A5
:1022800097FE013002D14FF0FF3026E023692A4645
:1022900039463046C0470130F5D023689B0710D53A
:1022A000002504F1190907E001234A463946304662
:1022B000C0470130E7D00135E368039A9B1A9D427D
:1022C000F2DBE068039B9842B8BF184605E00B7844
:1022D00084F8423004F142058AE705B0BDE8F08396
:1022E000C1270008D227000838B5064C0023054650
:1022F0000846236000F0E0F9431C02D1236803B1D3
:102300002B6038BDC000002010B50C46B1F90E108E
:1023100000F098F90028ABBF636DA3891B1823F464
:102320008053ACBF6365A38110BD2DE9F0411F460A
:102330008B89DB0505460C46164605D5022300228F
:10234000B1F90E1000F018F9A389B4F90E1023F4B6
:102350008053A38132463B462846BDE8F041FEF754
:1023600005B910B50C46B1F90E1000F005F9431C83
:10237000A38915BF606523F4805343F48053A38180
:1023800018BFA38110BDB1F90E1000F0C3B8000052
:10239000F8B50F461446064618B183690BB9FFF726
:1023A00025FB224B9C4201D1746808E0204B9C42E3
:1023B00001D1B46803E01F4B9C4208BFF468A369D5
:1023C000A360A3891A0709D523693BB12368206953
:1023D000181A63699842FDB20FDB08E021463046C7
:1023E00000F02AF80028F1D04FF0FF30F8BD214668
:1023F0003046FFF791FA0028F6D1A368013BA360AD
:1024000023685A1C22601F706269431C934204D0E7
:10241000A389DB0707D50A2D05D121463046FFF7F2
:102420007BFA0028E0D12846F8BD00BF50270008FD
:102430007027000890270008324B70B51D680646CB
:102440000C4625B1AB6913B92846FFF7CFFA2E4BDE
:102450009C4201D16C6808E02C4B9C4201D1AC68D5
:1024600003E02B4B9C4208BFEC68B4F90C309AB2E5
:1024700015071DD4D00602D4092232603AE0510774
:1024800012D5616B41B104F14403994202D0304648
:10249000FFF79EFB00236363A38923F02403A3813A
:1024A0000023636023692360A38943F00803A381A9
:1024B00023694BB9A38903F42073B3F5007F03D0DC
:1024C00021463046FFF740FBA28912F0010305D0F8
:1024D0000023A36063695B42A36103E0920758BFD6
:1024E0006369A36023695BB9B4F90C3003F0800021
:1024F00080B230B143F04003A3814FF0FF3070BD94
:10250000002070BD8C0000205027000870270008B4
:102510009027000838B5064C00230546084623607E
:1025200000F0A2F8431C02D1236803B12B6038BD30
:10253000C000002038B5074C002305460846114668
:10254000236000F099F8431C02D1236803B12B608B
:1025500038BD00BFC000002038B5064C002305463A
:102560000846236000F090F8431C02D1236803B1B1
:102570002B6038BDC000002038B5074C0546084622
:102580001146002222601A4600F086F8431C02D150
:10259000236803B12B6038BDC0000020000000009C
:1025A00001F0FF01102A2BDB10F0070F08D010F804
:1025B000013B013A8B422DD010F0070F42B3F6D108
:1025C000F0B441EA012141EA014122F007047FF021
:1025D00000070023F0E80256083C85EA010586EA78
:1025E000010685FA47F5A3FA87F586FA47F6A5FAB4
:1025F00087F68EB9EED1F0BC01F0FF0102F00702C0
:1026000032B110F8013B013A83EA010313B1F8D16A
:102610000020704701387047002D06BF354603384B
:10262000073815F0010F07D1013015F4807F02BF84
:10263000013015F4C03F0130F0BC0138704700BFD5
:102640007047704738B5074C0546084611460022CA
:1026500022601A4600F028F8431C02D1236803B117
:102660002B6038BDC0000020024B58221A604FF08A
:10267000FF307047C0000020024B58221A604FF014
:10268000FF307047C0000020024B58221A60002023
:10269000704700BFC0000020024B58221A604FF064
:1026A000FF307047C0000020024B58221A604FF0E4
:1026B000FF307047C0000020044B1968024609B97A
:1026C00003491960186802441A607047BC00002072
:1026D000C8000020FEE70000F8B500BFF8BC08BC49
:1026E0009E467047F8B500BFF8BC08BC9E467047D0
:1026F000414343454C5F4F55545F535441545553E8
:10270000203D2025303278200A00000041636365B7
:102710006C204944203D202578200A0041636365F0
:102720006C207C7C2078203A2079203A207A207C0A
:102730007C2020256420203A2020256420203A2077
:1027400020256420200A0000430000002C00002007
:102750000000000000000000000000000000000079
:102760000000000000000000000000000000000069
:102770000000000000000000000000000000000059
:102780000000000000000000000000000000000049
:102790000000000000000000000000000000000039
:1027A0000000000000000000000000000000000029
:1027B000232D302B2000686C4C006566674546472A
:1027C00000303132333435363738394142434445AD
:1027D000460030313233343536373839616263641C
:0827E000656600000000000026
:0827E800FCD9FF7F0100000095
:1027F0000000010002000400060008000A000C00AE
:1028000010002000400080000001000000000000D7
:102810000102030401020304060708090000000086
:1028200050270008702700089027000800000000CB
:102830000000000000000000000000004827000821
:102840000000000000000000000000000000000088
:102850000000000000000000000000000000000078
:102860000000000000000000000000000000000068
:102870000000000000000000000000002C0000200C
:08288000AD0100088901000808
:0400000508000000EF
:00000001FF
