:020000040800F2
:1000000000400020C50900080B0A00080D0A00087E
:100010000F0A0008110A0008130A00080000000077
:10002000000000000000000000000000150A0008A9
:10003000170A000800000000190A00081B0A00083F
:100040001D0A00081F0A0008210A0008230A0008E8
:10005000250A0008270A0008290A00082B0A0008B8
:100060002D0A00082F0A0008310A0008330A000888
:10007000350A0008370A0008390A00083B0A000858
:100080003D0A00083F0A0008410A0008430A000828
:10009000450A0008470A0008490A00084B0A0008F8
:1000A0004D0A00084F0A0008510A0008530A0008C8
:1000B000550A0008570A0008590A00085B0A000898
:1000C0005D0A00085F0A0008610A0008630A000868
:1000D000650A0008670A0008690A00086B0A000838
:1000E0006D0A00086F0A0008710A0008730A000808
:1000F000750A0008770A0008790A00087B0A0008D8
:100100000000000000000000000000007D0A000860
:100110007F0A0008810A0008830A0008850A00088F
:10012000870A0008890A00088B0A00088D0A00085F
:100130008F0A0008910A000800000000000000007B
:10014000930A0008950A0008970A000800000000BA
:10015000000000000000000000000000000000009F
:100160000000000000000000990A00089B0A000837
:100170009D0A0008000000000000000000000000D0
:10018000000000009F0A000810B5054C237833B921
:10019000044B13B10448AFF300800123237010BD5A
:1001A0009800002000000000441D0008084B10B516
:1001B0001BB108490848AFF300800848036803B939
:1001C00010BD074B002BFBD0BDE81040184700BF07
:1001D000000000009C000020441D00089800002042
:1001E00000000000154B002B08BF134B9D46A3F5E4
:1001F000803A00218B460F461348144A121A00F029
:10020000E7FC0F4B002B00D098470E4B002B00D083
:1002100098470020002104000D000D48002802D05E
:100220000C48AFF3008000F0ADFC2000290000F086
:100230001DFB00F093FC00BF000008000040002000
:10024000000000000000000098000020C400002012
:10025000000000000000000010B4CB0800EB830099
:1002600001F00701046A89000F238B4024EA03038D
:100270000362036A8A4042EA0301016210BC7047CC
:10028000F0B5A14A536803F00C03042B02D0082BED
:1002900000F0F5809D4A026000259B4CDFF874C297
:1002A0006368DFF874E2C3F303131CF80370FFB252
:1002B00022FA07F343606168C1F302211CF80110C0
:1002C00023FA01F181606668C6F3C2261CF8066055
:1002D000F6B2F340C360E46AC4F304143EF8144079
:1002E000A4B214F0100F1CBFB5FBF4F40461864CEB
:1002F00008BF0261E46AC4F344243EF81440A4B287
:1003000014F0100F1CBFB5FBF4F444617E4C08BF21
:100310004261246BE4065CBF7C4C84617A4C48BF2C
:100320008261246BA4065CBF784CC461764C48BFE4
:10033000C261D4F830E01EF4807F49D0954200F0CD
:10034000B8800362246B43626F4C256BAD0711D0FC
:10035000236B03F00303012B00F0B680236B03F043
:100360000303022B00F0BB80236B03F00303032B7A
:1003700001D1664B8362644B1C6B14F4403F31D156
:10038000C162614B1C6B14F4402F44D101635E4B7E
:100390001C6B14F4401F57D141635B4B1C6B14F46E
:1003A000400F6AD0196B01F44001B1F5800F00F0E5
:1003B00091801A6B02F44002B2F5000F00F09F80AA
:1003C0001B6B03F44003B3F5400F00F08580F0BDD4
:1003D0000362246BA405B6D59542B4D1B742B2D11D
:1003E00055006FE01C6B04F44034B4F5803F5AD0E4
:1003F0001C6B04F44034B4F5003F78D01B6B03F45D
:100400004033B3F5403F04BF404BC3623E4B1C6BCF
:1004100014F4402FBAD01C6B04F44024B4F5802FA0
:1004200045D01C6B04F44024B4F5002F5BD01B6B4B
:1004300003F44023B3F5402F04BF344B0363324B26
:100440001C6B14F4401FA7D01C6B04F44014B4F5CB
:10045000801F2AD01C6B04F44014B4F5001F4AD04E
:100460001B6B03F44013B3F5401F04BF274B4363DA
:10047000254B1C6B14F4400F94D18163F0BD55687B
:100480005368C5F38345DB0305F102011ED5D36A2A
:100490001E4D03F00F030133B5FBF3F301FB03F52E
:1004A00005602A46F9E6C2626BE7426375E70263BC
:1004B0006DE7B7427FF445AF55000562246BA60592
:1004C0007FF541AF45623FE7826254E7104B03FB83
:1004D00001F5E5E78263F0BD0C4B8363F0BD4FF49B
:1004E0000043836247E74FF4004303634FE74FF451
:1004F0000043C36245E74FF4004343634DE74FF4C5
:1005000000438363F0BD00BF0010024000127A0078
:1005100000093D001C000020000000208181704780
:10052000808980B2704700BF008900F4C0607047C6
:100530000389194214BF012000207047C1F308014C
:1005400001857047C3690B4214BF0120002070472A
:10055000014608B50448FFF7F1FF80210248FFF784
:10056000F1FF0028F9D008BD0044004070B51E1E00
:1005700013DD1446951903E0FFF7EAFFAC420CD0F7
:1005800014F8010B0A28F7D10D20FFF7E1FF14F84A
:10059000010CFFF7DDFFAC42F2D1304670BD00BF69
:1005A00070B5454E454C336890B0054600219868BB
:1005B00000F02EFB33680021586800F029FB404A08
:1005C000536943F400335361D1694FF0904341F4D0
:1005D0000031D1611A6A22F470621A621A6A42F416
:1005E000E0621A621A6A22F470421A621A6A42F4CB
:1005F000E0421A629A6822F0F0029A609A6842F029
:1006000050029A609A8822F00C021204120C9A800E
:100610009A8892B29A801A6822F0F0021A601A68D8
:1006200042F0A0021A60DA6822F0F002DA60DA68BA
:1006300042F05002DA60236823F00103236063680C
:1006400023F44053636063686360236823F4B0530A
:1006500023F00C032360236823602368236023684E
:1006600043F00C032360A36823F44073A360A368E2
:10067000A36001A8FFF704FE23680C9A190448BF81
:100680005200B2FBF5F305FB1322B2EB550F0B4AF8
:10069000126828BF0133120405D54FF6F0721A40D4
:1006A000C3F342031343054A9BB29381136843F09B
:1006B0000103136010B070BD8C00002000440040A6
:1006C0000010024010B54FF0904440F08000A38A23
:1006D000C3F30E03A382000200F0E6F800F0D6F8A0
:1006E000A38A6FEA43436FEA53439BB2A382C0B22B
:1006F00010BD00BF70B5044610480E46FFF714FF4A
:100700004FF090420546938A04F07F00C3F30E0336
:1007100046EA0020938200F0C7F8084C2046FFF715
:1007200003FF8542F9D04FF09042A389938A6FEA84
:1007300043436FEA53439BB2938270BD003C004039
:1007400008B503212320FFF7D5FF67212020BDE84E
:100750000840FFF7CFBF00BF08B50F20FFF7B2FF7B
:10076000BDE808400146014800F03ABA7C1C000888
:10077000F0B40F299DF810700ED82F4CA04248D02D
:100780000ED92E4CA04250D004F58064A04246D031
:10079000A4F50064A04225D04FF0FF30F0BC7047B4
:1007A000B0F1904F2FD0A4F58064A042F4D1244D35
:1007B0006C6944F480246C614900032405688C4012
:1007C000E44305EA040602FA01F535430560C5680D
:1007D0008B402540013A2B43012AC36008D90020F1
:1007E000F0BC7047164D6C6944F480146C61E3E70B
:1007F00083889BB28F4004EA0301394389B2818028
:10080000F0BC002070470E4D6C6944F400346C61FC
:10081000D2E70B4D6C6944F400246C61CCE7084DC1
:100820006C6944F480046C61C6E7054D6C6944F45E
:1008300000146C61C0E700BF0008004800100048C9
:1008400000100240F0B583B002230024174605468D
:100850001A460E460094FFF78BFF28463A4631466B
:10086000FFF7FAFC204603B0F0BD00BF08B54FF417
:100870001650FFF795FE0F2000F02CF8FFF760FFF1
:10088000FFF76AFF6423013BFDD1F9E708B50121B9
:100890000448FFF74DFE0128F9D10248FFF740FE5A
:1008A000C0B208BD003C004010B504460221084813
:1008B000FFF73EFE0128F9D121460548FFF72EFE3D
:1008C00002210348FFF734FE0128F9D110BD00BF13
:1008D000003C004030B5384A384DD36943F40043FA
:1008E00083B0D3610446062228460421FFF7AAFFFD
:1008F000284606220321FFF7A5FF284606220521E8
:10090000FFF7A0FF00232146009301224FF0904003
:10091000FFF72EFF2A4B1A8802F441521A801A88D8
:1009200092B21A801A8892B242F482721A801A889D
:1009300092B242F002021A801A8892B242F0010288
:100940001A801A8892B242F400721A801A8892B2FF
:1009500042F018021A801A8892B21A809A8822F4F9
:1009600070621204120C9A809A8892B242F4006269
:100970009A809A8B22F400621204120C07219A8347
:1009800019829A8822F480521204120C9A809A8852
:1009900092B242F480529A801A8892B24FF09041FB
:1009A00042F040021A808B8A0120A040184380B296
:1009B000888203B030BD00BF001002400004004830
:1009C000003C00400649074A074B9A42BEBF51F817
:1009D000040B42F8040BF8E704488047044800473A
:1009E000501D00080000002098000020A90A0008FF
:1009F000E50100082A492B4A002301E041F8043BA5
:100A00009142FBD3FFF732FFFEE7FEE7FEE7FEE78A
:100A1000FEE7FEE7FEE7FEE7FEE7FEE7FEE7FEE7AE
:100A2000FEE7FEE7FEE7FEE7FEE7FEE7FEE7FEE79E
:100A3000FEE7FEE7FEE7FEE7FEE7FEE7FEE7FEE78E
:100A4000FEE7FEE7FEE7FEE7FEE7FEE7FEE7FEE77E
:100A5000FEE7FEE7FEE7FEE7FEE7FEE7FEE7FEE76E
:100A6000FEE7FEE7FEE7FEE7FEE7FEE7FEE7FEE75E
:100A7000FEE7FEE7FEE7FEE7FEE7FEE7FEE7FEE74E
:100A8000FEE7FEE7FEE7FEE7FEE7FEE7FEE7FEE73E
:100A9000FEE7FEE7FEE7FEE7FEE7FEE7FEE7FEE72E
:100AA00098000020C400002010B4274B274A186883
:100AB0002749284C40F001001860586802405A60ED
:100AC0001A6822F0847222F480321A601A6822F4C2
:100AD00080221A605A6822F4FE025A60DA6A22F012
:100AE0000F02DA621A6B002011401222196398601B
:100AF00022605A685A605A685A605A6842F48062A2
:100B00005A605A6822F47C125A605A6842F46012A1
:100B10005A601A6842F080721A6019680A4A89019C
:100B2000FBD5536823F003035360536843F002037B
:100B30005360536803F00C03082BFAD1064B4FF0B7
:100B400000629A6010BC7047001002400CC07FF831
:100B5000CCFC00FF0020024000ED00E008B5074B90
:100B6000044613B10021AFF30080054B1868836A77
:100B700003B19847204601F065F800BF000000006F
:100B8000AC1C000870B50E4B0E4CE41AA4100025E6
:100B90001E46A54204D056F8253098470135F8E79F
:100BA00001F052F8084C094BE41AA41000251E4627
:100BB000A54204D056F8253098470135F8E770BDB6
:100BC0009000002090000020940000209000002061
:100BD00002440346934202D003F8011BFAE7704730
:100BE0000FB40A4B13B51C6824B1A36913B920468E
:100BF00000F0B2F905AB049AA1680193204600F019
:100C000071FB02B0BDE8104004B070478C000020BA
:100C100000294FF480630CBF0222002200F000B8CC
:100C20002DE9F7431D464F4B1E6804460F4690467C
:100C300026B1B36913B9304600F08EF94A4B9C4295
:100C400001D1746808E0494B9C4201D1B46803E0CB
:100C5000474B9C4208BFF468B8F1020F04D0B8F1CA
:100C6000010F79D8002D77DB2146304600F00AF9D4
:100C7000616B41B104F14403994202D0304600F067
:100C80005DFA002363630023A3616360A3891B06ED
:100C900003D52169304600F051FAA38923F44A6351
:100CA00023F00303B8F1020FA3811ED001AB6A4603
:100CB0002146304600F0DAF9A3891843A0810DB926
:100CC000009D00E02FBB284600F030FA0746D0B95F
:100CD000DDF80090A94502D14FF0FF3006E048460C
:100CE00000F024FA074678B9F6E70020A38943F01C
:100CF0000203A3810023A36004F14703236023615F
:100D0000012363612AE0A946A38943F08003A381FC
:100D10004D46B36913B9304600F01EF9B8F1010F22
:100D200008BFA389276004BF43F00103A381A389FF
:100D3000276103F0080080B2656158B113F0010328
:100D40004FF000001DBF6D42A060A561A56008BF07
:100D5000184603E0A06001E04FF0FF3003B0BDE8AB
:100D6000F08300BF8C000020B01C0008D01C0008DD
:100D7000F01C00088A892DE9F041054610070C4651
:100D800059D44B68002B02DC0B6C002B17DDE66A94
:100D9000AEB102F48052002392B22F682B600AB1E8
:100DA000606D15E0216A01232846B047411C0FD130
:100DB0002B686BB11D2B01D0162B03D12F600020A7
:100DC000BDE8F081A38943F04003A381BDE8F08131
:100DD000A3895A0705D56368C01A636B0BB1236CEE
:100DE000C01A00230246E66A216A2846B047431C1F
:100DF000A38906D129681D293AD8214ACA40D607B5
:100E000036D500226260D9042269226004D5421CD2
:100E100001D12B6803B96065616B2F600029CED0CA
:100E200004F14403994202D0284600F087F90020DB
:100E30006063BDE8F0810F69002FC0D093070E6892
:100E400008BF4B690F6018BF0023C7EB06088B6013
:100E500002E00744C0EB0808B8F1000FAFDD4346DD
:100E60003A46216AA66A2846B0470028F1DCA389E1
:100E700043F04003A3814FF0FF30BDE8F08100BF95
:100E80000100402038B50B6905460C46DBB118B1AE
:100E900083690BB900F060F80C4B9C4201D16C687F
:100EA00008E00B4B9C4201D1AC6803E0094B9C422B
:100EB00008BFEC68B4F90C302BB121462846BDE8D8
:100EC0003840FFF757BF002038BD00BFB01C0008F6
:100ED000D01C0008F01C0008014900F0A9B800BFB0
:100EE000850E0008002310B504460360436083604C
:100EF00081814366C281036143618361194608228F
:100F00005C30FFF765FE054B6362054BA362054B42
:100F1000E362054B2462236310BD00BF751800080F
:100F200097180008CF180008F318000870B5682358
:100F30004D1E5D430E4605F1740100F04DF9044667
:100F400040B1002180E842000C30A06005F1680249
:100F5000FFF73EFE204670BD836910B5044633BBE3
:100F60008364C3640365124B124A1B688262984211
:100F700004BF0123836100F01FF86060204600F089
:100F80001BF8A060204600F017F80022E060042162
:100F90006068FFF7A7FF01220921A068FFF7A2FF01
:100FA00002221221E068FFF79DFF0123A36110BD1B
:100FB000AC1C0008D90E0008F8B51C4B1E68B369BC
:100FC000074613B93046FFF7C7FF4836B468736861
:100FD000013B04D4B4F90C507DB16834F8E73368B0
:100FE0000BB13668F2E704213846FFF79FFF306007
:100FF0000028F6D10C233B60F8BD4FF6FF73E38168
:101000000123A38165662560A56065602561656132
:10101000A5610822294604F15C00FFF7D9FD65634C
:10102000A563A564E5642046F8BD00BFAC1C0008BC
:101030002DE9F8438046894600F14804002694B122
:10104000A5686768013F0CD4AB89012B07D9B5F9B6
:101050000E30013303D029464046C8470643683561
:10106000F0E72468EBE73046BDE8F88370B50E463C
:10107000B1F90E10002990B014461D4606DA00237F
:101080002B60B3891A060ED540230EE001AA00F0AA
:1010900007FD0028F3DB029A02F47042A2F5005328
:1010A0005A425A412A604FF480630020236010B0F6
:1010B00070BD00008B8973B59E0705460C4610D4A1
:1010C00001AB6A46FFF7D2FF00990646284600F0BA
:1010D00083F868B9B4F90C309A0522D443F00203BE
:1010E000A38104F14703236023610123636118E0B6
:1010F0000D4BAB62A389206043F08003A381009B6A
:101100006361019B20614BB1B4F90E10284600F0D9
:10111000D9FC18B1A38943F00103A381A08930430E
:10112000A08102B070BD00BFD90E0008024B01467D
:10113000186800F051B800BF8C00002038B5054693
:10114000002946D051F8043C0C1F002BB8BFE4180E
:1011500000F02EFD1F4A1368114613B96360146036
:1011600032E0A3420ED92268A018834204BF186857
:101170005B68636004BF121822600C6024E0A24226
:1011800003D813465A68002AF9D118681918A142E1
:101190000BD12168014458188242196014D110689B
:1011A00052685A60014419600EE002D90C232B608A
:1011B0000AE021686018824204BF106852686260C9
:1011C00004BF091821605C602846BDE8384000F083
:1011D000F0BC38BDB800002070B5CD1C25F003056B
:1011E00008350C2D38BF0C25002D064601DBA94221
:1011F00002D90C23336046E000F0DAFC234B1C6874
:101200001A462146A1B10B685B1B0ED40B2B03D9E8
:101210000B60CC18CD501EE08C420DBF63684B684C
:101220006360136018BF0C4615E00C464968E9E797
:10123000174C23681BB9304600F00CFB2060294690
:10124000304600F007FB431C18D0C41C24F00304F4
:10125000A0420DD12560304600F0ABFC04F10B003C
:10126000231D20F00700C31A0ED05A42E25070BD71
:10127000211A304600F0EEFA0130EBD10C23336036
:10128000304600F096FC002070BD00BFB800002082
:10129000B40000209368013B002B10B4936008DA7F
:1012A0009469A34202DBCBB20A2B02D110BC00F03E
:1012B00025BB1368581C10601970C8B210BC704769
:1012C000F8B506460F461446D518AC4208D03A4643
:1012D00014F8011B3046FFF7DDFF431CF5D100E099
:1012E0000020F8BD2DE9F04F9DB00C461746039342
:1012F000064618B183690BB9FFF72EFE7F4B9C425F
:1013000001D1746808E07E4B9C4201D1B46803E0CF
:101310007C4B9C4208BFF468A38918070CD523694D
:1013200053B10023099320238DF8293030238DF801
:101330002A30DFF8D4B144E02146304600F032FBD9
:101340000028EED04FF0FF30D5E0039A111D12684F
:101350000391002A80F28C80524243F002000792EF
:10136000049098F800302E2B00F08480032298F827
:101370000010654800F0CCFB48B14023CBEB0000E7
:1013800003FA00F0049B1843049008F1010898F850
:1013900000105E488DF82810062208F1010700F0C1
:1013A000B7FB002800F09580594B002B40F0888057
:1013B000039B073323F0070308330393099B53442C
:1013C0000993B846454615F8013B1BB9B8EB070928
:1013D0000FD003E0252BF9D0A846F3E74B463A4659
:1013E00021463046FFF76CFF01307FD0099B4B440C
:1013F000099398F80030002B78D000234FF0FF328B
:1014000004930793059206938DF853301A9301279E
:10141000052229783F4800F07BFB05F10108049B79
:1014200038B13C4A801A07FA00F018430490454648
:10143000EEE7D90644BF20228DF853201A0744BF97
:101440002B228DF853202A782A2A3FF47EAF079A60
:1014500000210A20A846013598F80030303B092BBE
:1014600003D800FB02320121F4E700293FF479AFF1
:10147000079276E798F801302A2B0BD1039B1A1DAF
:101480001B680392002BB8BF4FF0FF3308F102082E
:1014900005936BE70023059308F1010019460A251F
:1014A0008046013098F80020303A092A03D805FB1D
:1014B00001210123F4E7002B3FF458AF059155E7D4
:1014C00003AB00932246144B04A93046AFF30080CF
:1014D00007E003AB009322460F4B04A9304600F00F
:1014E00093F8B0F1FF3F82467FF468AFA3895B06B3
:1014F0003FF528AF09981DB0BDE8F08FB01C00087B
:10150000D01C0008F01C0008161D00081A1D000859
:1015100000000000101D0008C11200082DE9F0476E
:1015200091461F460A698B68DDF820809342B8BF58
:101530001346C9F8003091F8432006460C4612B114
:101540000133C9F800302368990642BFD9F800304A
:101550000233C9F80030256815F0060510D104F1F2
:10156000190A07E00123524639463046C047013088
:101570001AD00135E368D9F800209B1A9D42F1DBAF
:1015800094F843302268003318BF012392060FD528
:10159000E1185A1C302081F84300224494F8451089
:1015A00082F84310023303E04FF0FF30BDE8F087CC
:1015B00004F1430239463046C0470130F4D0226876
:1015C000D9F80050E36802F00602042A08BF5D1B48
:1015D0002269A3680CBF25EAE57500259342C4BFC4
:1015E0009B1AED184FF000091A344D4509D001231C
:1015F000224639463046C0470130D5D009F10109AD
:10160000F3E70020BDE8F0872DE9F04317460A7E96
:1016100085B06E2A984606460C460C9B01F1430E97
:1016200000F0AE8011D8632A22D009D8002A00F039
:10163000BB80582A40F0CA8081F84520834955E094
:10164000642A1ED0692A1CD0C0E0732A00F0B08042
:1016500009D86F2A2ED0702A40F0B8800A6842F06C
:1016600020020A603EE0752A24D0782A3AD0ADE004
:101670001A6801F14205111D1960136884F842309F
:10168000A8E021681A6811F0800F02D0111D1960BE
:1016900008E011F0400F02F10401196002D0B2F924
:1016A000003000E01368002B3CDA2D225B4284F806
:1016B000432037E021681A6811F0800F02D0111D15
:1016C000196007E011F0400F02F10401196001D028
:1016D000138800E01368227E5C496F2A14BF0A2237
:1016E00008221BE078225A4984F8452022681868AD
:1016F00012F0800F00F104051D6003D1550601D5DD
:10170000038800E00368D00744BF42F02002226053
:101710001BB9226822F0200222601022002084F8E7
:10172000430001E049490A226568A560002D08DBF5
:10173000206820F0040020602BB9002D7DD1754673
:101740000CE0002B79D07546B3FBF2F002FB1033AE
:10175000CB5C05F8013D03460028F5D1082A0BD1E2
:101760002368DA0708D5236962689A42DEBF30230E
:1017700005F8013C05F1FF35C5EB0E0323612EE0B2
:1017800008681A68496910F0800F03D0101D1860AE
:10179000136808E010F0400F02F1040018601368AD
:1017A00001D0198000E0196000232361754616E01E
:1017B0001A68111D1960156862680021284600F03A
:1017C000A7F908B1401B6060636804E004F14205BA
:1017D00084F8422001232361002384F84330CDF8AC
:1017E00000803B4603AA21463046FFF797FE0130B2
:1017F00002D14FF0FF3026E023692A4639463046B1
:10180000C0470130F5D023689B0710D5002504F1AF
:10181000190907E001234A4639463046C0470130DE
:10182000E7D00135E368039A9B1A9D42F2DBE0683A
:10183000039B9842B8BF184605E00B7884F8423005
:1018400004F142058AE705B0BDE8F083211D0008D8
:10185000321D000838B5064C0023054608462360B3
:1018600000F0E2F9431C02D1236803B12B6038BDBC
:10187000C000002010B50C46B1F90E1000F09AF926
:101880000028ABBF636DA3891B1823F48053ACBF42
:101890006365A38110BD2DE9F0411F468B89DB05EF
:1018A00005460C46164605D502230022B1F90E1056
:1018B00000F018F9A389B4F90E1023F48053A38122
:1018C00032463B462846BDE8F041FEF74FBE10B514
:1018D0000C46B1F90E1000F005F9431CA38915BFA1
:1018E000606523F4805343F48053A38118BFA38120
:1018F00010BDB1F90E1000F0C3B80000F8B50F46E6
:101900001446064618B183690BB9FFF725FB224B35
:101910009C4201D1746808E0204B9C4201D1B4681C
:1019200003E01F4B9C4208BFF468A369A360A3892E
:101930001A0709D523693BB123682069181A63691E
:101940009842FDB20FDB08E02146304600F02AF84D
:101950000028F1D04FF0FF30F8BD21463046FFF7A8
:1019600091FA0028F6D1A368013BA36023685A1CB2
:1019700022601F706269431C934204D0A389DB0775
:1019800007D50A2D05D121463046FFF77BFA0028FE
:10199000E0D12846F8BD00BFB01C0008D01C0008EC
:1019A000F01C0008324B70B51D6806460C4625B188
:1019B000AB6913B92846FFF7CFFA2E4B9C4201D1F1
:1019C0006C6808E02C4B9C4201D1AC6803E02B4BC7
:1019D0009C4208BFEC68B4F90C309AB215071DD4CC
:1019E000D00602D4092232603AE0510712D5616B69
:1019F00041B104F14403994202D03046FFF79EFB07
:101A000000236363A38923F02403A381002363607D
:101A100023692360A38943F00803A38123694BB999
:101A2000A38903F42073B3F5007F03D02146304629
:101A3000FFF740FBA28912F0010305D00023A36049
:101A400063695B42A36103E0920758BF6369A360C7
:101A500023695BB9B4F90C3003F0800080B230B177
:101A600043F04003A3814FF0FF3070BD002070BDF4
:101A70008C000020B01C0008D01C0008F01C0008DE
:101A800038B5064C002305460846236000F0A4F84C
:101A9000431C02D1236803B12B6038BDC000002075
:101AA00038B5074C0023054608461146236000F070
:101AB0009BF8431C02D1236803B12B6038BD00BFE3
:101AC000C000002038B5064C0023054608462360B8
:101AD00000F092F8431C02D1236803B12B6038BD9B
:101AE000C000002038B5074C0546084611460022C4
:101AF00022601A4600F088F8431C02D1236803B123
:101B00002B6038BDC0000020000000000000000075
:101B100001F0FF01102A2BDB10F0070F08D010F89E
:101B2000013B013A8B422DD010F0070F42B3F6D1A2
:101B3000F0B441EA012141EA014122F007047FF0BB
:101B400000070023F0E80256083C85EA010586EA12
:101B5000010685FA47F5A3FA87F586FA47F6A5FA4E
:101B600087F68EB9EED1F0BC01F0FF0102F007025A
:101B700032B110F8013B013A83EA010313B1F8D105
:101B80000020704701387047002D06BF35460338E6
:101B9000073815F0010F07D1013015F4807F02BF1F
:101BA000013015F4C03F0130F0BC0138704700BF70
:101BB0007047704738B5074C054608461146002265
:101BC00022601A4600F028F8431C02D1236803B1B2
:101BD0002B6038BDC0000020024B58221A604FF025
:101BE000FF307047C0000020024B58221A604FF0AF
:101BF000FF307047C0000020024B58221A600020BE
:101C0000704700BFC0000020024B58221A604FF0FE
:101C1000FF307047C0000020024B58221A604FF07E
:101C2000FF307047C0000020044B1968024609B914
:101C300003491960186802441A607047BC0000200C
:101C4000C8000020FEE70000F8B500BFF8BC08BCE3
:101C50009E467047F8B500BFF8BC08BC9E4670476A
:101C6000414343454C5F4F55545F53544154555382
:101C7000203D2025303278200A00000057484F5F71
:101C8000414D5F49203D2025303278200A00000078
:101C9000783A2025642C20793A2025642C207A3A41
:101CA0002025640A00000000430000002C000020F2
:101CB0000000000000000000000000000000000024
:101CC0000000000000000000000000000000000014
:101CD0000000000000000000000000000000000004
:101CE00000000000000000000000000000000000F4
:101CF00000000000000000000000000000000000E4
:101D000000000000000000000000000000000000D3
:101D1000232D302B2000686C4C00656667454647D4
:101D20000030313233343536373839414243444557
:101D300046003031323334353637383961626364C6
:081D40006566000000000000D0
:081D48009CE4FF7F0100000094
:101D50000000010002000400060008000A000C0058
:101D60001000200040008000000100000000000082
:101D70000102030401020304060708090000000031
:101D8000B01C0008D01C0008F01C00080000000077
:101D9000000000000000000000000000A81C000877
:101DA0000000000000000000000000000000000033
:101DB0000000000000000000000000000000000023
:101DC0000000000000000000000000000000000013
:101DD0000000000000000000000000002C000020B7
:081DE000AD01000889010008B3
:0400000508000000EF
:00000001FF
